{
  "contractName": "AltCrowdsalePhaseOne",
  "abi": [
    {
      "constant": false,
      "inputs": [
        {
          "name": "_isWhitelisted",
          "type": "bool"
        },
        {
          "name": "_isKnownOnly",
          "type": "bool"
        },
        {
          "name": "_isAmountBonus",
          "type": "bool"
        },
        {
          "name": "_isEarlyBonus",
          "type": "bool"
        },
        {
          "name": "_isRefundable",
          "type": "bool"
        },
        {
          "name": "_isTokenExcange",
          "type": "bool"
        },
        {
          "name": "_isAllowToIssue",
          "type": "bool"
        },
        {
          "name": "_isExtraDistribution",
          "type": "bool"
        },
        {
          "name": "_isMintingShipment",
          "type": "bool"
        },
        {
          "name": "_isPullingTokens",
          "type": "bool"
        }
      ],
      "name": "setFlags",
      "outputs": [],
      "payable": false,
      "stateMutability": "nonpayable",
      "type": "function"
    },
    {
      "constant": false,
      "inputs": [
        {
          "name": "_tokenAddress",
          "type": "address"
        }
      ],
      "name": "setToken",
      "outputs": [],
      "payable": false,
      "stateMutability": "nonpayable",
      "type": "function"
    },
    {
      "constant": true,
      "inputs": [
        {
          "name": "",
          "type": "address"
        }
      ],
      "name": "claimRefundAllowance",
      "outputs": [
        {
          "name": "",
          "type": "bool"
        }
      ],
      "payable": false,
      "stateMutability": "view",
      "type": "function"
    },
    {
      "constant": true,
      "inputs": [
        {
          "name": "",
          "type": "uint256"
        }
      ],
      "name": "timeSlices",
      "outputs": [
        {
          "name": "",
          "type": "uint256"
        }
      ],
      "payable": false,
      "stateMutability": "view",
      "type": "function"
    },
    {
      "constant": false,
      "inputs": [
        {
          "name": "_timeSlices",
          "type": "uint256[]"
        },
        {
          "name": "_prices",
          "type": "uint256[]"
        }
      ],
      "name": "setTimeBonuses",
      "outputs": [],
      "payable": false,
      "stateMutability": "nonpayable",
      "type": "function"
    },
    {
      "constant": true,
      "inputs": [],
      "name": "temporalTotalSupply",
      "outputs": [
        {
          "name": "",
          "type": "uint256"
        }
      ],
      "payable": false,
      "stateMutability": "view",
      "type": "function"
    },
    {
      "constant": true,
      "inputs": [],
      "name": "isMintingShipment",
      "outputs": [
        {
          "name": "",
          "type": "bool"
        }
      ],
      "payable": false,
      "stateMutability": "view",
      "type": "function"
    },
    {
      "constant": false,
      "inputs": [
        {
          "name": "_beneficiary",
          "type": "address"
        },
        {
          "name": "_value",
          "type": "uint256"
        },
        {
          "name": "_timestamp",
          "type": "uint256"
        },
        {
          "name": "_hash",
          "type": "bytes32"
        }
      ],
      "name": "buyWithHash",
      "outputs": [],
      "payable": false,
      "stateMutability": "nonpayable",
      "type": "function"
    },
    {
      "constant": true,
      "inputs": [],
      "name": "isRefundable",
      "outputs": [
        {
          "name": "",
          "type": "bool"
        }
      ],
      "payable": false,
      "stateMutability": "view",
      "type": "function"
    },
    {
      "constant": false,
      "inputs": [
        {
          "name": "_token",
          "type": "address"
        },
        {
          "name": "_value",
          "type": "uint256"
        }
      ],
      "name": "updateTokenValue",
      "outputs": [],
      "payable": false,
      "stateMutability": "nonpayable",
      "type": "function"
    },
    {
      "constant": true,
      "inputs": [],
      "name": "endTime",
      "outputs": [
        {
          "name": "",
          "type": "uint256"
        }
      ],
      "payable": false,
      "stateMutability": "view",
      "type": "function"
    },
    {
      "constant": false,
      "inputs": [
        {
          "name": "_amountSlices",
          "type": "uint256[]"
        },
        {
          "name": "_prices",
          "type": "uint256[]"
        }
      ],
      "name": "setAmountBonuses",
      "outputs": [],
      "payable": false,
      "stateMutability": "nonpayable",
      "type": "function"
    },
    {
      "constant": true,
      "inputs": [],
      "name": "tokenDecimals",
      "outputs": [
        {
          "name": "",
          "type": "uint256"
        }
      ],
      "payable": false,
      "stateMutability": "view",
      "type": "function"
    },
    {
      "constant": true,
      "inputs": [
        {
          "name": "",
          "type": "uint256"
        }
      ],
      "name": "whitelisted",
      "outputs": [
        {
          "name": "",
          "type": "address"
        }
      ],
      "payable": false,
      "stateMutability": "view",
      "type": "function"
    },
    {
      "constant": true,
      "inputs": [],
      "name": "weiRaised",
      "outputs": [
        {
          "name": "",
          "type": "uint256"
        }
      ],
      "payable": false,
      "stateMutability": "view",
      "type": "function"
    },
    {
      "constant": true,
      "inputs": [
        {
          "name": "",
          "type": "address"
        },
        {
          "name": "",
          "type": "address"
        }
      ],
      "name": "altDeposit",
      "outputs": [
        {
          "name": "",
          "type": "uint256"
        }
      ],
      "payable": false,
      "stateMutability": "view",
      "type": "function"
    },
    {
      "constant": true,
      "inputs": [],
      "name": "wallet",
      "outputs": [
        {
          "name": "",
          "type": "address"
        }
      ],
      "payable": false,
      "stateMutability": "view",
      "type": "function"
    },
    {
      "constant": true,
      "inputs": [],
      "name": "isAllowToIssue",
      "outputs": [
        {
          "name": "",
          "type": "bool"
        }
      ],
      "payable": false,
      "stateMutability": "view",
      "type": "function"
    },
    {
      "constant": true,
      "inputs": [
        {
          "name": "_beneficiary",
          "type": "address"
        },
        {
          "name": "_weiAmount",
          "type": "uint256"
        },
        {
          "name": "_tokenAmount",
          "type": "uint256"
        },
        {
          "name": "_extraAmount",
          "type": "uint256"
        },
        {
          "name": "_totalAmount",
          "type": "uint256"
        }
      ],
      "name": "validPurchase",
      "outputs": [
        {
          "name": "",
          "type": "bool"
        }
      ],
      "payable": false,
      "stateMutability": "view",
      "type": "function"
    },
    {
      "constant": true,
      "inputs": [],
      "name": "userRegistry",
      "outputs": [
        {
          "name": "",
          "type": "address"
        }
      ],
      "payable": false,
      "stateMutability": "view",
      "type": "function"
    },
    {
      "constant": true,
      "inputs": [
        {
          "name": "",
          "type": "uint256"
        }
      ],
      "name": "amountSlices",
      "outputs": [
        {
          "name": "",
          "type": "uint256"
        }
      ],
      "payable": false,
      "stateMutability": "view",
      "type": "function"
    },
    {
      "constant": true,
      "inputs": [],
      "name": "isWhitelisted",
      "outputs": [
        {
          "name": "",
          "type": "bool"
        }
      ],
      "payable": false,
      "stateMutability": "view",
      "type": "function"
    },
    {
      "constant": false,
      "inputs": [
        {
          "name": "_owner",
          "type": "address"
        }
      ],
      "name": "grant",
      "outputs": [],
      "payable": false,
      "stateMutability": "nonpayable",
      "type": "function"
    },
    {
      "constant": false,
      "inputs": [
        {
          "name": "_owner",
          "type": "address"
        }
      ],
      "name": "revoke",
      "outputs": [],
      "payable": false,
      "stateMutability": "nonpayable",
      "type": "function"
    },
    {
      "constant": true,
      "inputs": [],
      "name": "timeSlicesCount",
      "outputs": [
        {
          "name": "",
          "type": "uint256"
        }
      ],
      "payable": false,
      "stateMutability": "view",
      "type": "function"
    },
    {
      "constant": false,
      "inputs": [],
      "name": "saneIt",
      "outputs": [],
      "payable": false,
      "stateMutability": "nonpayable",
      "type": "function"
    },
    {
      "constant": true,
      "inputs": [
        {
          "name": "_at",
          "type": "uint256"
        }
      ],
      "name": "calculateTimeBonus",
      "outputs": [
        {
          "name": "",
          "type": "uint256"
        }
      ],
      "payable": false,
      "stateMutability": "view",
      "type": "function"
    },
    {
      "constant": true,
      "inputs": [],
      "name": "startTime",
      "outputs": [
        {
          "name": "",
          "type": "uint256"
        }
      ],
      "payable": false,
      "stateMutability": "view",
      "type": "function"
    },
    {
      "constant": true,
      "inputs": [
        {
          "name": "",
          "type": "address"
        }
      ],
      "name": "personalBonuses",
      "outputs": [
        {
          "name": "",
          "type": "address"
        }
      ],
      "payable": false,
      "stateMutability": "view",
      "type": "function"
    },
    {
      "constant": false,
      "inputs": [
        {
          "name": "_holder",
          "type": "address"
        },
        {
          "name": "_extraPart",
          "type": "uint256"
        }
      ],
      "name": "setExtraDistribution",
      "outputs": [],
      "payable": false,
      "stateMutability": "nonpayable",
      "type": "function"
    },
    {
      "constant": true,
      "inputs": [
        {
          "name": "_changeAmount",
          "type": "uint256"
        }
      ],
      "name": "calculateAmountBonus",
      "outputs": [
        {
          "name": "",
          "type": "uint256"
        }
      ],
      "payable": false,
      "stateMutability": "view",
      "type": "function"
    },
    {
      "constant": true,
      "inputs": [],
      "name": "publisher",
      "outputs": [
        {
          "name": "",
          "type": "address"
        }
      ],
      "payable": false,
      "stateMutability": "view",
      "type": "function"
    },
    {
      "constant": true,
      "inputs": [],
      "name": "isOwner",
      "outputs": [
        {
          "name": "",
          "type": "bool"
        }
      ],
      "payable": false,
      "stateMutability": "view",
      "type": "function"
    },
    {
      "constant": false,
      "inputs": [
        {
          "name": "_from",
          "type": "address"
        },
        {
          "name": "_value",
          "type": "uint256"
        },
        {
          "name": "_token",
          "type": "address"
        },
        {
          "name": "_extraData",
          "type": "bytes"
        }
      ],
      "name": "receiveApproval",
      "outputs": [],
      "payable": false,
      "stateMutability": "nonpayable",
      "type": "function"
    },
    {
      "constant": true,
      "inputs": [],
      "name": "softCap",
      "outputs": [
        {
          "name": "",
          "type": "uint256"
        }
      ],
      "payable": false,
      "stateMutability": "view",
      "type": "function"
    },
    {
      "constant": false,
      "inputs": [
        {
          "name": "_price",
          "type": "uint256"
        }
      ],
      "name": "setPrice",
      "outputs": [],
      "payable": false,
      "stateMutability": "nonpayable",
      "type": "function"
    },
    {
      "constant": true,
      "inputs": [],
      "name": "isAmountBonus",
      "outputs": [
        {
          "name": "",
          "type": "bool"
        }
      ],
      "payable": false,
      "stateMutability": "view",
      "type": "function"
    },
    {
      "constant": true,
      "inputs": [
        {
          "name": "",
          "type": "address"
        }
      ],
      "name": "whitelist",
      "outputs": [
        {
          "name": "",
          "type": "address"
        }
      ],
      "payable": false,
      "stateMutability": "view",
      "type": "function"
    },
    {
      "constant": false,
      "inputs": [
        {
          "name": "_start",
          "type": "uint256"
        },
        {
          "name": "_end",
          "type": "uint256"
        }
      ],
      "name": "setTime",
      "outputs": [],
      "payable": false,
      "stateMutability": "nonpayable",
      "type": "function"
    },
    {
      "constant": true,
      "inputs": [],
      "name": "price",
      "outputs": [
        {
          "name": "",
          "type": "uint256"
        }
      ],
      "payable": false,
      "stateMutability": "view",
      "type": "function"
    },
    {
      "constant": false,
      "inputs": [
        {
          "name": "_registry",
          "type": "address"
        }
      ],
      "name": "setRegistry",
      "outputs": [],
      "payable": false,
      "stateMutability": "nonpayable",
      "type": "function"
    },
    {
      "constant": true,
      "inputs": [],
      "name": "whitelistedCount",
      "outputs": [
        {
          "name": "",
          "type": "uint256"
        }
      ],
      "payable": false,
      "stateMutability": "view",
      "type": "function"
    },
    {
      "constant": false,
      "inputs": [
        {
          "name": "_beneficiary",
          "type": "address"
        },
        {
          "name": "_min",
          "type": "uint256"
        },
        {
          "name": "_max",
          "type": "uint256"
        }
      ],
      "name": "addToWhitelist",
      "outputs": [],
      "payable": false,
      "stateMutability": "nonpayable",
      "type": "function"
    },
    {
      "constant": true,
      "inputs": [
        {
          "name": "",
          "type": "address"
        }
      ],
      "name": "temporalBalances",
      "outputs": [
        {
          "name": "",
          "type": "uint256"
        }
      ],
      "payable": false,
      "stateMutability": "view",
      "type": "function"
    },
    {
      "constant": true,
      "inputs": [],
      "name": "isTokenExcange",
      "outputs": [
        {
          "name": "",
          "type": "bool"
        }
      ],
      "payable": false,
      "stateMutability": "view",
      "type": "function"
    },
    {
      "constant": false,
      "inputs": [
        {
          "name": "_beneficiary",
          "type": "address"
        }
      ],
      "name": "claimRefund",
      "outputs": [
        {
          "name": "",
          "type": "bool"
        }
      ],
      "payable": false,
      "stateMutability": "nonpayable",
      "type": "function"
    },
    {
      "constant": true,
      "inputs": [],
      "name": "state",
      "outputs": [
        {
          "name": "",
          "type": "uint8"
        }
      ],
      "payable": false,
      "stateMutability": "view",
      "type": "function"
    },
    {
      "constant": true,
      "inputs": [],
      "name": "isExtraDistribution",
      "outputs": [
        {
          "name": "",
          "type": "bool"
        }
      ],
      "payable": false,
      "stateMutability": "view",
      "type": "function"
    },
    {
      "constant": false,
      "inputs": [
        {
          "name": "_token",
          "type": "address"
        },
        {
          "name": "_value",
          "type": "uint256"
        }
      ],
      "name": "setTokenExcange",
      "outputs": [],
      "payable": false,
      "stateMutability": "nonpayable",
      "type": "function"
    },
    {
      "constant": false,
      "inputs": [
        {
          "name": "_softCap",
          "type": "uint256"
        },
        {
          "name": "_hardCap",
          "type": "uint256"
        }
      ],
      "name": "setSoftHardCaps",
      "outputs": [],
      "payable": false,
      "stateMutability": "nonpayable",
      "type": "function"
    },
    {
      "constant": true,
      "inputs": [
        {
          "name": "",
          "type": "uint256"
        }
      ],
      "name": "amountBonuses",
      "outputs": [
        {
          "name": "",
          "type": "uint256"
        }
      ],
      "payable": false,
      "stateMutability": "view",
      "type": "function"
    },
    {
      "constant": true,
      "inputs": [
        {
          "name": "",
          "type": "address"
        }
      ],
      "name": "weiDeposit",
      "outputs": [
        {
          "name": "",
          "type": "uint256"
        }
      ],
      "payable": false,
      "stateMutability": "view",
      "type": "function"
    },
    {
      "constant": true,
      "inputs": [],
      "name": "extraDistributionPart",
      "outputs": [
        {
          "name": "",
          "type": "uint256"
        }
      ],
      "payable": false,
      "stateMutability": "view",
      "type": "function"
    },
    {
      "constant": true,
      "inputs": [
        {
          "name": "_weiAmount",
          "type": "uint256"
        },
        {
          "name": "_time",
          "type": "uint256"
        },
        {
          "name": "_totalSupply",
          "type": "uint256"
        }
      ],
      "name": "calculateEthAmount",
      "outputs": [
        {
          "name": "",
          "type": "uint256"
        },
        {
          "name": "",
          "type": "uint256"
        },
        {
          "name": "",
          "type": "uint256"
        }
      ],
      "payable": false,
      "stateMutability": "view",
      "type": "function"
    },
    {
      "constant": true,
      "inputs": [
        {
          "name": "",
          "type": "uint256"
        }
      ],
      "name": "timeBonuses",
      "outputs": [
        {
          "name": "",
          "type": "uint256"
        }
      ],
      "payable": false,
      "stateMutability": "view",
      "type": "function"
    },
    {
      "constant": false,
      "inputs": [
        {
          "name": "_wallet",
          "type": "address"
        }
      ],
      "name": "setWallet",
      "outputs": [],
      "payable": false,
      "stateMutability": "nonpayable",
      "type": "function"
    },
    {
      "constant": true,
      "inputs": [
        {
          "name": "maybe_owner",
          "type": "address"
        }
      ],
      "name": "checkOwner",
      "outputs": [
        {
          "name": "",
          "type": "bool"
        }
      ],
      "payable": false,
      "stateMutability": "view",
      "type": "function"
    },
    {
      "constant": true,
      "inputs": [],
      "name": "isPullingTokens",
      "outputs": [
        {
          "name": "",
          "type": "bool"
        }
      ],
      "payable": false,
      "stateMutability": "view",
      "type": "function"
    },
    {
      "constant": true,
      "inputs": [],
      "name": "amountSlicesCount",
      "outputs": [
        {
          "name": "",
          "type": "uint256"
        }
      ],
      "payable": false,
      "stateMutability": "view",
      "type": "function"
    },
    {
      "constant": true,
      "inputs": [],
      "name": "isKnownOnly",
      "outputs": [
        {
          "name": "",
          "type": "bool"
        }
      ],
      "payable": false,
      "stateMutability": "view",
      "type": "function"
    },
    {
      "constant": true,
      "inputs": [
        {
          "name": "",
          "type": "address"
        }
      ],
      "name": "allowedTokens",
      "outputs": [
        {
          "name": "",
          "type": "address"
        }
      ],
      "payable": false,
      "stateMutability": "view",
      "type": "function"
    },
    {
      "constant": true,
      "inputs": [],
      "name": "extraTokensHolder",
      "outputs": [
        {
          "name": "",
          "type": "address"
        }
      ],
      "payable": false,
      "stateMutability": "view",
      "type": "function"
    },
    {
      "constant": false,
      "inputs": [
        {
          "name": "_beneficiary",
          "type": "address"
        }
      ],
      "name": "buyTokens",
      "outputs": [],
      "payable": true,
      "stateMutability": "payable",
      "type": "function"
    },
    {
      "constant": true,
      "inputs": [],
      "name": "isEarlyBonus",
      "outputs": [
        {
          "name": "",
          "type": "bool"
        }
      ],
      "payable": false,
      "stateMutability": "view",
      "type": "function"
    },
    {
      "constant": false,
      "inputs": [
        {
          "name": "_beneficiary",
          "type": "address"
        },
        {
          "name": "_bonus",
          "type": "uint256"
        },
        {
          "name": "_referalAddress",
          "type": "address"
        },
        {
          "name": "_referalBonus",
          "type": "uint256"
        }
      ],
      "name": "setPersonalBonus",
      "outputs": [],
      "payable": false,
      "stateMutability": "nonpayable",
      "type": "function"
    },
    {
      "constant": true,
      "inputs": [
        {
          "name": "",
          "type": "address"
        }
      ],
      "name": "tokensValues",
      "outputs": [
        {
          "name": "",
          "type": "uint256"
        }
      ],
      "payable": false,
      "stateMutability": "view",
      "type": "function"
    },
    {
      "constant": false,
      "inputs": [
        {
          "name": "_beneficiary",
          "type": "address"
        }
      ],
      "name": "refund",
      "outputs": [],
      "payable": false,
      "stateMutability": "nonpayable",
      "type": "function"
    },
    {
      "constant": true,
      "inputs": [],
      "name": "hardCap",
      "outputs": [
        {
          "name": "",
          "type": "uint256"
        }
      ],
      "payable": false,
      "stateMutability": "view",
      "type": "function"
    },
    {
      "constant": true,
      "inputs": [],
      "name": "token",
      "outputs": [
        {
          "name": "",
          "type": "address"
        }
      ],
      "payable": false,
      "stateMutability": "view",
      "type": "function"
    },
    {
      "constant": true,
      "inputs": [],
      "name": "VERSION",
      "outputs": [
        {
          "name": "",
          "type": "uint256"
        }
      ],
      "payable": false,
      "stateMutability": "view",
      "type": "function"
    },
    {
      "inputs": [
        {
          "name": "_registry",
          "type": "address"
        },
        {
          "name": "_token",
          "type": "address"
        },
        {
          "name": "_extraTokensHolder",
          "type": "address"
        },
        {
          "name": "_extraTokensPart",
          "type": "uint256"
        },
        {
          "name": "_timeSlices",
          "type": "uint256[]"
        },
        {
          "name": "_timePrices",
          "type": "uint256[]"
        }
      ],
      "payable": false,
      "stateMutability": "nonpayable",
      "type": "constructor"
    },
    {
      "payable": true,
      "stateMutability": "payable",
      "type": "fallback"
    },
    {
      "anonymous": false,
      "inputs": [
        {
          "indexed": true,
          "name": "purchaser",
          "type": "address"
        },
        {
          "indexed": true,
          "name": "beneficiary",
          "type": "address"
        },
        {
          "indexed": false,
          "name": "value",
          "type": "uint256"
        },
        {
          "indexed": false,
          "name": "amount",
          "type": "uint256"
        }
      ],
      "name": "TokenPurchase",
      "type": "event"
    },
    {
      "anonymous": false,
      "inputs": [
        {
          "indexed": true,
          "name": "beneficiary",
          "type": "address"
        },
        {
          "indexed": false,
          "name": "value",
          "type": "uint256"
        },
        {
          "indexed": false,
          "name": "amount",
          "type": "uint256"
        },
        {
          "indexed": false,
          "name": "timestamp",
          "type": "uint256"
        },
        {
          "indexed": true,
          "name": "bitcoinHash",
          "type": "bytes32"
        }
      ],
      "name": "HashSale",
      "type": "event"
    },
    {
      "anonymous": false,
      "inputs": [
        {
          "indexed": true,
          "name": "beneficiary",
          "type": "address"
        },
        {
          "indexed": true,
          "name": "allowedToken",
          "type": "address"
        },
        {
          "indexed": false,
          "name": "allowedTokenValue",
          "type": "uint256"
        },
        {
          "indexed": false,
          "name": "ethValue",
          "type": "uint256"
        },
        {
          "indexed": false,
          "name": "shipAmount",
          "type": "uint256"
        }
      ],
      "name": "TokenSell",
      "type": "event"
    },
    {
      "anonymous": false,
      "inputs": [
        {
          "indexed": true,
          "name": "owner",
          "type": "address"
        },
        {
          "indexed": true,
          "name": "amount",
          "type": "uint256"
        }
      ],
      "name": "ShipTokens",
      "type": "event"
    },
    {
      "anonymous": false,
      "inputs": [
        {
          "indexed": true,
          "name": "owner",
          "type": "address"
        }
      ],
      "name": "AccessGrant",
      "type": "event"
    },
    {
      "anonymous": false,
      "inputs": [
        {
          "indexed": true,
          "name": "owner",
          "type": "address"
        }
      ],
      "name": "AccessRevoke",
      "type": "event"
    }
  ],
  "bytecode": "0x606060405234156200001057600080fd5b6040516200344b3803806200344b8339810160405280805191906020018051919060200180519190602001805191906020018051820191906020018051600160a060020a0333166000818152602081905260408120805460ff191660019081179091558054600160a060020a03191690921782559190930192620000ad92509081908181808280808364010000000062000c296200019282021704565b620000c68564010000000062000db76200032682021704565b620000e54262278d00810164010000000062001cf96200042182021704565b620000fe8664010000000062001d6b6200049282021704565b6200011733640100000000620022666200051782021704565b620001318484640100000000620019dc6200059c82021704565b6200016c62000158670de0b6b3a764000060c86401000000006200273a6200062482021704565b64010000000062001c6d6200063c82021704565b62000186828264010000000062000ec76200068d82021704565b5050505050506200080a565b600080601a5460ff166004811115620001a757fe5b14620001b257600080fd5b600160a060020a03331660009081526020819052604090205460ff161515600114620001dd57600080fd5b8a600160146101000a81548160ff02191690831515021790555089600160156101000a81548160ff02191690831515021790555088600160166101000a81548160ff02191690831515021790555087600160176101000a81548160ff02191690831515021790555086600160186101000a81548160ff02191690831515021790555085600160196101000a81548160ff021916908315150217905550846001601a6101000a81548160ff021916908315150217905550836001601b6101000a81548160ff021916908315150217905550826001601c6101000a81548160ff021916908315150217905550600160189054906101000a900460ff1680620002e05750815b600180549115157d0100000000000000000000000000000000000000000000000000000000000260e860020a60ff02199092169190911790555050505050505050505050565b600080601a5460ff1660048111156200033b57fe5b146200034657600080fd5b600160a060020a03331660009081526020819052604090205460ff1615156001146200037157600080fd5b600160a060020a03821615156200038757600080fd5b600d8054600160a060020a031916600160a060020a0384811691909117918290551663313ce5676000604051602001526040518163ffffffff167c0100000000000000000000000000000000000000000000000000000000028152600401602060405180830381600087803b1515620003ff57600080fd5b6102c65a03f115156200041157600080fd5b5050506040518051600e55505050565b600080601a5460ff1660048111156200043657fe5b146200044157600080fd5b600160a060020a03331660009081526020819052604090205460ff1615156001146200046c57600080fd5b8183106200047957600080fd5b4282116200048657600080fd5b50601191909155601255565b600080601a5460ff166004811115620004a757fe5b14620004b257600080fd5b600160a060020a03331660009081526020819052604090205460ff161515600114620004dd57600080fd5b600554600160a060020a031615620004f457600080fd5b5060058054600160a060020a031916600160a060020a0392909216919091179055565b600080601a5460ff1660048111156200052c57fe5b146200053757600080fd5b600160a060020a03331660009081526020819052604090205460ff1615156001146200056257600080fd5b601354600160a060020a0316156200057957600080fd5b5060138054600160a060020a031916600160a060020a0392909216919091179055565b600080601a5460ff166004811115620005b157fe5b14620005bc57600080fd5b600160a060020a03331660009081526020819052604090205460ff161515600114620005e757600080fd5b600160a060020a0383161515620005fd57600080fd5b5060178054600160a060020a031916600160a060020a039390931692909217909155601855565b60008082848115156200063357fe5b04949350505050565b600080601a5460ff1660048111156200065157fe5b146200065c57600080fd5b600160a060020a03331660009081526020819052604090205460ff1615156001146200068757600080fd5b50601455565b6000808080601a5460ff166004811115620006a457fe5b14620006af57600080fd5b600160a060020a03331660009081526020819052604090205460ff161515600114620006da57600080fd5b600b5415620006e857600080fd5b6001855111620006f757600080fd5b84518451146200070657600080fd5b60009250600091505b8451821015620007ad57828583815181106200072757fe5b9060200190602002015110156200073d57600080fd5b8482815181106200074a57fe5b906020019060200201519250600a80548060010182816200076c9190620007ba565b5060009182526020909120018390558382815181106200078857fe5b906020019060200201516000848152600960205260409020556001909101906200070f565b5050600a54600b55505050565b815481835581811511620007e157600083815260209020620007e1918101908301620007e6565b505050565b6200080791905b80821115620008035760008155600101620007ed565b5090565b90565b612c31806200081a6000396000f30060606040526004361061031e5763ffffffff60e060020a6000350416630af417b18114610329578063144fa6d71461037057806317d861441461038f578063205513f3146103c257806321309ae3146103ea57806327937160146104795780632a03156a1461048c5780632a37eaea1461049f5780632c1fecfe146104c75780632cdb8eec146104da5780633197cbb6146104fc5780633647b0841461050f5780633b97e8561461059e5780633d4efe09146105b15780634042b66f146105e357806341593ae9146105f6578063521eb2731461061b5780635551d1b71461062e57806355e22956146106415780635c7460d61461066c5780635ce8ec241461067f578063611b40951461069557806370284d19146106a857806374a8f103146106c7578063756abb98146106e657806375f7e6f0146106f95780637862affa1461070c57806378e979251461072257806380c2cc3814610735578063852a7d6c146107545780638727b7fc146107765780638c72c54e1461078c5780638f32d59b1461079f5780638f4ffcb1146107b2578063906a26e01461081e57806391b7f5ed1461083157806393545a79146108475780639b19251a1461085a578063a0355eca14610879578063a035b1fe14610892578063a91ee0dc146108a5578063b2a1de22146108c4578063b47be3e4146108d7578063b761abf3146108fc578063b8dd488e1461091b578063bffa55d51461092e578063c19d93fb1461094d578063c448fa8514610984578063c6a7d3af14610997578063c82829e0146109b9578063d036261f146109d2578063d2566303146109e8578063d69c927514610a07578063dabba26414610a1a578063de7682a814610a5a578063deaa59df14610a70578063e0e3671c14610a8f578063e17c3a0814610aae578063e3b6040e14610ac1578063e56f381514610ad4578063e744092e14610ae7578063e75bf82014610b06578063ec8ac4d814610b19578063ef11e55b14610b2d578063f45b4fba14610b40578063f967c9eb14610b6c578063fa89401a14610b8b578063fb86a40414610baa578063fc0c546a14610bbd578063ffa1ad7414610bd0575b61032733610be3565b005b341561033457600080fd5b6103276004351515602435151560443515156064351515608435151560a435151560c435151560e4351515610104351515610124351515610c29565b341561037b57600080fd5b610327600160a060020a0360043516610db7565b341561039a57600080fd5b6103ae600160a060020a0360043516610e93565b604051901515815260200160405180910390f35b34156103cd57600080fd5b6103d8600435610ea8565b60405190815260200160405180910390f35b34156103f557600080fd5b610327600460248135818101908301358060208181020160405190810160405280939291908181526020018383602002808284378201915050505050509190803590602001908201803590602001908080602002602001604051908101604052809392919081815260200183836020028082843750949650610ec795505050505050565b341561048457600080fd5b6103d8610fe6565b341561049757600080fd5b6103ae610fec565b34156104aa57600080fd5b610327600160a060020a0360043516602435604435606435610ffc565b34156104d257600080fd5b6103ae6110b9565b34156104e557600080fd5b610327600160a060020a03600435166024356110c9565b341561050757600080fd5b6103d861110f565b341561051a57600080fd5b61032760046024813581810190830135806020818102016040519081016040528093929190818152602001838360200280828437820191505050505050919080359060200190820180359060200190808060200260200160405190810160405280939291908181526020018383602002808284375094965061111595505050505050565b34156105a957600080fd5b6103d8611234565b34156105bc57600080fd5b6105c760043561123a565b604051600160a060020a03909116815260200160405180910390f35b34156105ee57600080fd5b6103d8611262565b341561060157600080fd5b6103d8600160a060020a0360043581169060243516611268565b341561062657600080fd5b6105c7611285565b341561063957600080fd5b6103ae611294565b341561064c57600080fd5b6103ae600160a060020a03600435166024356044356064356084356112bb565b341561067757600080fd5b6105c761153e565b341561068a57600080fd5b6103d860043561154d565b34156106a057600080fd5b6103ae61155b565b34156106b357600080fd5b610327600160a060020a036004351661157c565b34156106d257600080fd5b610327600160a060020a03600435166115f9565b34156106f157600080fd5b6103d86116af565b341561070457600080fd5b6103276116b5565b341561071757600080fd5b6103d8600435611950565b341561072d57600080fd5b6103d86119bb565b341561074057600080fd5b6105c7600160a060020a03600435166119c1565b341561075f57600080fd5b610327600160a060020a03600435166024356119dc565b341561078157600080fd5b6103d8600435611a60565b341561079757600080fd5b6105c7611acf565b34156107aa57600080fd5b6103ae611ade565b34156107bd57600080fd5b61032760048035600160a060020a0390811691602480359260443516919060849060643590810190830135806020601f82018190048102016040519081016040528181529291906020840183838082843750949650611b0e95505050505050565b341561082957600080fd5b6103d8611c67565b341561083c57600080fd5b610327600435611c6d565b341561085257600080fd5b6103ae611cbb565b341561086557600080fd5b6105c7600160a060020a0360043516611cde565b341561088457600080fd5b610327600435602435611cf9565b341561089d57600080fd5b6103d8611d65565b34156108b057600080fd5b610327600160a060020a0360043516611d6b565b34156108cf57600080fd5b6103d8611dec565b34156108e257600080fd5b610327600160a060020a0360043516602435604435611df2565b341561090757600080fd5b6103d8600160a060020a0360043516611f1e565b341561092657600080fd5b6103ae611f30565b341561093957600080fd5b6103ae600160a060020a0360043516611f56565b341561095857600080fd5b610960611ff8565b6040518082600481111561097057fe5b60ff16815260200191505060405180910390f35b341561098f57600080fd5b6103ae612001565b34156109a257600080fd5b610327600160a060020a0360043516602435612011565b34156109c457600080fd5b61032760043560243561208c565b34156109dd57600080fd5b6103d86004356120dd565b34156109f357600080fd5b6103d8600160a060020a03600435166120ef565b3415610a1257600080fd5b6103d8612101565b3415610a2557600080fd5b610a36600435602435604435612107565b60405180848152602001838152602001828152602001935050505060405180910390f35b3415610a6557600080fd5b6103d8600435612254565b3415610a7b57600080fd5b610327600160a060020a0360043516612266565b3415610a9a57600080fd5b6103ae600160a060020a03600435166122e7565b3415610ab957600080fd5b6103ae612317565b3415610acc57600080fd5b6103d8612327565b3415610adf57600080fd5b6103ae61232d565b3415610af257600080fd5b6105c7600160a060020a036004351661234f565b3415610b1157600080fd5b6105c761236a565b610327600160a060020a0360043516610be3565b3415610b3857600080fd5b6103ae612379565b3415610b4b57600080fd5b610327600160a060020a03600435811690602435906044351660643561239d565b3415610b7757600080fd5b6103d8600160a060020a036004351661243a565b3415610b9657600080fd5b610327600160a060020a036004351661244c565b3415610bb557600080fd5b6103d86124b2565b3415610bc857600080fd5b6105c76124b8565b3415610bdb57600080fd5b6103d86124c7565b6000600180601a5460ff166004811115610bf957fe5b14610c0357600080fd5b610c0d83346124cc565b915060008211610c1c57600080fd5b610c24612691565b505050565b600080601a5460ff166004811115610c3d57fe5b14610c4757600080fd5b600160a060020a03331660009081526020819052604090205460ff161515600114610c7157600080fd5b8a600160146101000a81548160ff02191690831515021790555089600160156101000a81548160ff02191690831515021790555088600160166101000a81548160ff02191690831515021790555087600160176101000a81548160ff02191690831515021790555086600160186101000a81548160ff02191690831515021790555085600160196101000a81548160ff021916908315150217905550846001601a6101000a81548160ff021916908315150217905550836001601b6101000a81548160ff021916908315150217905550826001601c6101000a81548160ff021916908315150217905550600160189054906101000a900460ff1680610d735750815b6001805491151560e860020a027fffff00ffffffffffffffffffffffffffffffffffffffffffffffffffffffffff9092169190911790555050505050505050505050565b600080601a5460ff166004811115610dcb57fe5b14610dd557600080fd5b600160a060020a03331660009081526020819052604090205460ff161515600114610dff57600080fd5b600160a060020a0382161515610e1457600080fd5b600d8054600160a060020a031916600160a060020a0384811691909117918290551663313ce5676000604051602001526040518163ffffffff1660e060020a028152600401602060405180830381600087803b1515610e7257600080fd5b6102c65a03f11515610e8357600080fd5b5050506040518051600e55505050565b601f6020526000908152604090205460ff1681565b600a805482908110610eb657fe5b600091825260209091200154905081565b6000808080601a5460ff166004811115610edd57fe5b14610ee757600080fd5b600160a060020a03331660009081526020819052604090205460ff161515600114610f1157600080fd5b600b5415610f1e57600080fd5b6001855111610f2c57600080fd5b8451845114610f3a57600080fd5b60009250600091505b8451821015610fd95782858381518110610f5957fe5b906020019060200201511015610f6e57600080fd5b848281518110610f7a57fe5b906020019060200201519250600a8054806001018281610f9a91906128e6565b506000918252602090912001839055838281518110610fb557fe5b90602001906020020151600084815260096020526040902055600190910190610f43565b5050600a54600b55505050565b601c5481565b60015460e060020a900460ff1681565b6000600180601a5460ff16600481111561101257fe5b1461101c57600080fd5b600160a060020a03331660009081526020819052604090205460ff16151560011461104657600080fd5b61105086866124cc565b91506000821161105f57600080fd5b82600160a060020a0387167f7c8f7476d7c48fb598c2faeaa38296073548801f143f6a518170ba5d957ceb0487858860405180848152602001838152602001828152602001935050505060405180910390a3505050505050565b60015460c060020a900460ff1681565b600160a060020a03331660009081526020819052604090205460ff1615156001146110f357600080fd5b600160a060020a03909116600090815260106020526040902055565b60125481565b6000808080601a5460ff16600481111561112b57fe5b1461113557600080fd5b600160a060020a03331660009081526020819052604090205460ff16151560011461115f57600080fd5b6008541561116c57600080fd5b600185511161117a57600080fd5b845184511461118857600080fd5b60009250600091505b845182101561122757828583815181106111a757fe5b9060200190602002015110156111bc57600080fd5b8482815181106111c857fe5b906020019060200201519250600780548060010182816111e891906128e6565b50600091825260209091200183905583828151811061120357fe5b90602001906020020151600084815260066020526040902055600190910190611191565b5050600754600855505050565b600e5481565b600380548290811061124857fe5b600091825260209091200154600160a060020a0316905081565b60195481565b601e60209081526000928352604080842090915290825290205481565b601354600160a060020a031681565b6001547a010000000000000000000000000000000000000000000000000000900460ff1681565b600080600080600160159054906101000a900460ff16801561134e5750600554600160a060020a031663a75df8148a60006040516020015260405160e060020a63ffffffff8416028152600160a060020a039091166004820152602401602060405180830381600087803b151561133157600080fd5b6102c65a03f1151561134257600080fd5b50505060405180519050155b1561135c5760009350611532565b600160a060020a0389166000908152601b6020526040902054611385908863ffffffff6126f916565b601c5490935061139b908663ffffffff6126f916565b60015490925074010000000000000000000000000000000000000000900460ff161561151a5750600160a060020a038089166000908152600260205260408082205490921691829163b1b3d3f69151602001526040518163ffffffff1660e060020a028152600401602060405180830381600087803b151561141c57600080fd5b6102c65a03f1151561142d57600080fd5b5050506040518051905015806114a257508281600160a060020a031663f88979456000604051602001526040518163ffffffff1660e060020a028152600401602060405180830381600087803b151561148557600080fd5b6102c65a03f1151561149657600080fd5b50505060405180519050115b8061150c57508281600160a060020a0316636ac5db196000604051602001526040518163ffffffff1660e060020a028152600401602060405180830381600087803b15156114ef57600080fd5b6102c65a03f1151561150057600080fd5b50505060405180519050105b1561151a5760009350611532565b81601554101561152d5760009350611532565b600193505b50505095945050505050565b600554600160a060020a031681565b6007805482908110610eb657fe5b60015474010000000000000000000000000000000000000000900460ff1681565b600160a060020a03331660009081526020819052604090205460ff1615156001146115a657600080fd5b600160a060020a03811660008181526020819052604090819020805460ff191660011790557f1350a997c6c86bcc51dd7e51f7ef618d620e6a85d8fdabb82a980c149ad88d47905160405180910390a250565b600160a060020a03331660009081526020819052604090205460ff16151560011461162357600080fd5b600154600160a060020a038281169116141561163e57600080fd5b80600160a060020a031633600160a060020a03161415151561165f57600080fd5b600160a060020a03811660008181526020819052604090819020805460ff191690557f1d1eff42eefbeecfca7e39f8adb5d7f19a7ebbb4c3e82c51f2500d7d76ab2468905160405180910390a250565b600b5481565b600080601a5460ff1660048111156116c957fe5b146116d357600080fd5b600160a060020a03331660009081526020819052604090205460ff1615156001146116fd57600080fd5b6011544290111561170d57600080fd5b60125442901161171c57600080fd5b6014546000901161172c57600080fd5b601354600160a060020a0316151561174357600080fd5b600d54600160a060020a0316151561175a57600080fd5b6001547501000000000000000000000000000000000000000000900460ff161561179557600554600160a060020a0316151561179557600080fd5b600154760100000000000000000000000000000000000000000000900460ff16156117ca57600854600090116117ca57600080fd5b60015477010000000000000000000000000000000000000000000000900460ff161561180057600b546000901161180057600080fd5b60015460d860020a900460ff161561182957601754600160a060020a0316151561182957600080fd5b60015460e060020a900460ff16156118bc57600d54600160a060020a033081169116638da5cb5b6000604051602001526040518163ffffffff1660e060020a028152600401602060405180830381600087803b151561188757600080fd5b6102c65a03f1151561189857600080fd5b50505060405180519050600160a060020a03161415156118b757600080fd5b611940565b601554600d54600160a060020a03166370a082313060006040516020015260405160e060020a63ffffffff8416028152600160a060020a039091166004820152602401602060405180830381600087803b151561191857600080fd5b6102c65a03f1151561192957600080fd5b505050604051805190501015151561194057600080fd5b50601a805460ff19166001179055565b600080805b600a548110156119b4576000818152600960205260409020548490111561197b576119b4565b60096000600a8381548110151561198e57fe5b600091825260208083209091015483528201929092526040019020549150600101611955565b5092915050565b60115481565b600c60205260009081526040902054600160a060020a031681565b600080601a5460ff1660048111156119f057fe5b146119fa57600080fd5b600160a060020a03331660009081526020819052604090205460ff161515600114611a2457600080fd5b600160a060020a0383161515611a3957600080fd5b5060178054600160a060020a031916600160a060020a039390931692909217909155601855565b600080805b6007548110156119b45783600782815481101515611a7f57fe5b9060005260206000209001541115611a96576119b4565b60066000600783815481101515611aa957fe5b600091825260208083209091015483528201929092526040019020549150600101611a65565b600154600160a060020a031681565b600160a060020a03331660009081526020819052604081205460ff16611b05576000611b08565b60015b90505b90565b600160a060020a038281166000908152600f602052604081205490918291161515611b3857600080fd5b600160a060020a038085166000908152600f602052604080822054611be993169163313ce5679151602001526040518163ffffffff1660e060020a028152600401602060405180830381600087803b1515611b9257600080fd5b6102c65a03f11515611ba357600080fd5b5050506040518051600160a060020a038716600090815260106020526040902054600a9190910a9150611bdd90889063ffffffff61270f16565b9063ffffffff61273a16565b9150611bf586836124cc565b905060008111611c0457600080fd5b83600160a060020a031686600160a060020a03167f8f9e1c6f80a0fd25dc246f3b0a51422fce2a5f211d4f9877c7ec20b6499c939f87858560405180848152602001838152602001828152602001935050505060405180910390a3505050505050565b60165481565b600080601a5460ff166004811115611c8157fe5b14611c8b57600080fd5b600160a060020a03331660009081526020819052604090205460ff161515600114611cb557600080fd5b50601455565b600154760100000000000000000000000000000000000000000000900460ff1681565b600260205260009081526040902054600160a060020a031681565b600080601a5460ff166004811115611d0d57fe5b14611d1757600080fd5b600160a060020a03331660009081526020819052604090205460ff161515600114611d4157600080fd5b818310611d4d57600080fd5b428211611d5957600080fd5b50601191909155601255565b60145481565b600080601a5460ff166004811115611d7f57fe5b14611d8957600080fd5b600160a060020a03331660009081526020819052604090205460ff161515600114611db357600080fd5b600554600160a060020a031615611dc957600080fd5b5060058054600160a060020a031916600160a060020a0392909216919091179055565b60045481565b600080601a5460ff166004811115611e0657fe5b14611e1057600080fd5b600160a060020a03331660009081526020819052604090205460ff161515600114611e3a57600080fd5b600160a060020a0384161515611e4f57600080fd5b81831115611e5c57600080fd5b811515611e7857701d6329f1c35ca4bfabb9f561000000000091505b8282611e8261290a565b918252602082015260409081019051809103906000f0801515611ea457600080fd5b600160a060020a0385811660009081526002602052604090208054600160a060020a031916929091169190911790556003805460018101611ee583826128e6565b5060009182526020909120018054600160a060020a031916600160a060020a039590951694909417909355505060048054600101905550565b601b6020526000908152604090205481565b600154790100000000000000000000000000000000000000000000000000900460ff1681565b60015460009060c060020a900460ff161515611f7157600080fd5b600160a060020a0382166000908152601f602052604090205460ff1680611fa857506003601a5460ff166004811115611fa657fe5b145b1515611fb357600080fd5b600160a060020a0382166000818152601d6020526040908190205480156108fc029151600060405180830381858888f193505050501515611ff357600080fd5b919050565b601a5460ff1681565b60015460d860020a900460ff1681565b600080601a5460ff16600481111561202557fe5b1461202f57600080fd5b600160a060020a03331660009081526020819052604090205460ff16151560011461205957600080fd5b600160a060020a0383166000818152600f602052604090208054600160a060020a0319169091179055610c2483836110c9565b600080601a5460ff1660048111156120a057fe5b146120aa57600080fd5b600160a060020a03331660009081526020819052604090205460ff1615156001146120d457600080fd5b50601555601655565b60066020526000908152604090205481565b601d6020526000908152604090205481565b60185481565b6000806000806000806000601154891080612123575060125489115b156121375760009650869550859450612247565b600154760100000000000000000000000000000000000000000000900460ff1615612178576121756121688b611a60565b839063ffffffff6126f916565b91505b60015477010000000000000000000000000000000000000000000000900460ff16156121b1576121ae6121686011548b03611950565b91505b6121d0612710611bdd846127100360145461270f90919063ffffffff16565b92506121ee83611bdd600e54600a0a8d61270f90919063ffffffff16565b60015490945060d860020a900460ff161561222e5760185461222b9061221f8661271083900363ffffffff61270f16565b9063ffffffff61270f16565b90505b61223e848263ffffffff6126f916565b84829650965096505b5050505093509350939050565b60096020526000908152604090205481565b600080601a5460ff16600481111561227a57fe5b1461228457600080fd5b600160a060020a03331660009081526020819052604090205460ff1615156001146122ae57600080fd5b601354600160a060020a0316156122c457600080fd5b5060138054600160a060020a031916600160a060020a0392909216919091179055565b600160a060020a03811660009081526020819052604081205460ff1661230e576000612311565b60015b92915050565b60015460e860020a900460ff1681565b60085481565b6001547501000000000000000000000000000000000000000000900460ff1681565b600f60205260009081526040902054600160a060020a031681565b601754600160a060020a031681565b60015477010000000000000000000000000000000000000000000000900460ff1681565b600160a060020a03331660009081526020819052604090205460ff1615156001146123c757600080fd5b8282826123d261291a565b928352600160a060020a03909116602083015260408083019190915260609091019051809103906000f080151561240857600080fd5b600160a060020a039485166000908152600c602052604090208054600160a060020a0319169190951617909355505050565b60106020526000908152604090205481565b600160a060020a03331660009081526020819052604090205460ff16151560011461247657600080fd5b60015460c060020a900460ff16151561248e57600080fd5b600160a060020a03166000908152601f60205260409020805460ff19166001179055565b60155481565b600d54600160a060020a031681565b600181565b6000808080600180601a5460ff1660048111156124e557fe5b146124ef57600080fd5b600d5461255f9087904290600160a060020a03166318160ddd6000604051602001526040518163ffffffff1660e060020a028152600401602060405180830381600087803b151561253f57600080fd5b6102c65a03f1151561255057600080fd5b50505060405180519050612107565b9095509350915061257387878686866112bb565b151561257e57600080fd5b601954612591908763ffffffff6126f916565b60195561259e8785612751565b86600160a060020a031633600160a060020a03167f623b3804fa71d67900d064613da8f94b9617215ee90799290593e1745087ad18888760405191825260208201526040908101905180910390a38387600160a060020a03167f67066453570687eaa7bbfb5d6a5a6d901a7473f72563021e81204001241e7af760405160405180910390a360015460d860020a900460ff16156126865760175461264b90600160a060020a031684612751565b6017548390600160a060020a03167f67066453570687eaa7bbfb5d6a5a6d901a7473f72563021e81204001241e7af760405160405180910390a35b509195945050505050565b60015460c060020a900460ff16156126c357600160a060020a0333166000908152601d602052604090203490556126f7565b601354600160a060020a03163480156108fc0290604051600060405180830381858888f1935050505015156126f757600080fd5b565b60008282018381101561270857fe5b9392505050565b60008083151561272257600091506119b4565b5082820282848281151561273257fe5b041461270857fe5b600080828481151561274857fe5b04949350505050565b600180601a5460ff16600481111561276557fe5b1461276f57600080fd5b60015460e860020a900460ff16151561289c5760015460e060020a900460ff161561281457600d54600160a060020a03166340c10f19848460006040516020015260405160e060020a63ffffffff8516028152600160a060020a0390921660048301526024820152604401602060405180830381600087803b15156127f357600080fd5b6102c65a03f1151561280457600080fd5b505050604051805190505061289c565b600d54600160a060020a03166323b872dd30858560006040516020015260405160e060020a63ffffffff8616028152600160a060020a0393841660048201529190921660248201526044810191909152606401602060405180830381600087803b151561288057600080fd5b6102c65a03f1151561289157600080fd5b505050604051805150505b600160a060020a0383166000908152601b60205260409020546128c5908363ffffffff6126f916565b600160a060020a039093166000908152601b60205260409020929092555050565b815481835581811511610c2457600083815260209020610c2491810190830161292a565b60405161013e8061294983390190565b60405161017f80612a8783390190565b611b0b91905b808211156129445760008155600101612930565b509056006060604052341561000f57600080fd5b60405160408061013e83398101604052808051919060200180516000805460ff1916600190811790915593909355505060025560ee806100506000396000f30060606040526004361060525763ffffffff7c01000000000000000000000000000000000000000000000000000000006000350416636ac5db1981146057578063b1b3d3f6146079578063f889794514609d575b600080fd5b3415606157600080fd5b606760ad565b60405190815260200160405180910390f35b3415608357600080fd5b608960b3565b604051901515815260200160405180910390f35b341560a757600080fd5b606760bc565b60025481565b60005460ff1681565b600154815600a165627a7a723058200b2a67e2f779831282b11f9d7b1bdc0000c355665b212aaef904f6f7d0edd3b500296060604052341561000f57600080fd5b60405160608061017f83398101604052808051919060200180519190602001805160008054600160a060020a03909516600160a060020a0319909516949094179093555050600255600155610116806100696000396000f30060606040526004361060525763ffffffff7c010000000000000000000000000000000000000000000000000000000060003504166329176e638114605757806363e0f8c714609057806375b4d78c1460b2575b600080fd5b3415606157600080fd5b606760c2565b60405173ffffffffffffffffffffffffffffffffffffffff909116815260200160405180910390f35b3415609a57600080fd5b60a060de565b60405190815260200160405180910390f35b341560bc57600080fd5b60a060e4565b60005473ffffffffffffffffffffffffffffffffffffffff1681565b60025481565b600154815600a165627a7a723058200a6cf04dd311d3ce22305cdac94427ece71e0d9eacd1ee112eafc4cfa17e34030029a165627a7a723058208cd50e03ec2a39b950aaa0695ec94ec79315a3ec8d74074da4029855a2ff58670029",
  "source": "pragma solidity ^0.4.15;\n\nimport './base/Crowdsale.sol';\n\ncontract AltCrowdsalePhaseTwo is Crowdsale {\n  function AltCrowdsalePhaseTwo(\n    address _registry, \n    address _token)\n    public\n  {\n    \n  }  \n}\n\ncontract AltCrowdsalePhaseOne is Crowdsale {\n  function AltCrowdsalePhaseOne(\n    address _registry,\n    address _token,\n    address _extraTokensHolder,\n    uint _extraTokensPart,\n    uint[] _timeSlices,\n    uint[] _timePrices\n  ) public\n  {\n    setFlags(\n      // Should be whitelisted to buy tokens\n      // _isWhitelisted,\n      true,\n      // Should be known user to buy tokens\n      // _isKnownOnly,\n      true,\n      // Enable amount bonuses in crowdsale?\n      // _isAmountBonus,\n      false,\n      // Enable early bird bonus in crowdsale?\n      // _isEarlyBonus,\n      true,\n      // Allow to refund money?\n      // _isRefundable,\n      false,\n      // Allow to buy tokens for another tokens?\n      // _isTokenExcange,\n      false,\n      // Allow to issue tokens with tx hash (ex bitcoin)\n      // _isAllowToIssue,\n      true,\n      // Should mint extra tokens for future distribution?\n      // _isExtraDistribution,\n      true,\n      // Will ship token via minting? \n      // _isMintingShipment,\n      true,\n      // Should beneficiaries pull their tokens? \n      // _isPullingTokens\n      false\n    );\n\n    setToken(_token);\n\n    setTime(block.timestamp, block.timestamp + 30 days);\n\n    setRegistry(_registry);\n    setWallet(msg.sender);\n    setExtraDistribution(_extraTokensHolder, _extraTokensPart);\n\n    // 200 ALT per 1 ETH\n    setPrice(uint(1 ether).div(200));\n\n    setTimeBonuses(_timeSlices, _timePrices);\n  }  \n}",
  "sourcePath": "/Users/aler/crypto/altestate-3/contracts/AltCrowdsale.sol",
  "compiler": {
    "name": "solc",
    "version": "0.4.18+commit.9cf6e910.Emscripten.clang"
  },
  "schemaVersion": "1.0.1",
  "updatedAt": "2017-11-27T00:06:44.438Z"
}